:020000020000FC
:100000000FEF0DBF08E00EBF00E80093610003E0B2
:10001000009361000E9444000FEF10E014B905B98D
:100020000AB907B91093C1001FEF20E030E040E0AB
:1000300050E060E060E005B3013061F453955A3060
:1000400031F450E033953F70762F732B78B90E94CE
:100050004600A89A23B1121749F00E94490023B123
:10006000121749F3122F0E944E004F70F0E0EAEA97
:10007000E40F04910BB93417F1F630E050E06295CB
:10008000639561706295D7CF05E005BD0DE306BDB0
:10009000089504E60A950030E9F7089520FD01C0AF
:1000A000439521FD08954A950895039F250D99498B
:0A00B000411F010911C16385617150
:00000001FF
