:020000020000FC
:100000000FEF0DBF08E00EBF00E80093610003E0B2
:10001000009361000E943E000FEF10E014B905B993
:100020000AB907B91093C1001FEF05B3013061F49D
:1000300053955A3031F450E033953F70762F732B3F
:1000400078B90E944000A89A23B1121749F00E9483
:10005000430023B1121749F3122F0E9448004F703A
:10006000F0E0EEE9E40F04910BB93417F1F630E05B
:1000700050E06295639561706295D7CF05E005BD4C
:100080000DE306BD089504E60A950030E9F70895EA
:1000900020FD01C0439521FD08954A95089582EE03
:0E00A000434A2E1A12CE020A0632936213173A
:00000001FF
