:020000020000FC
:100000000FEF0DBF08E00EBF00E80093610003E0B2
:10001000009361000E9433000FEF10E014B905B99E
:100020000AB907B91093C1001FEF20E030E040E0AB
:1000300005B3013031F433953F7038B90E94350073
:10004000A89A23B1121749F00E94380023B1121761
:1000500079F3122F0E943D004F70F0E0E8E8E40FC2
:1000600004910BB9E5CF05E005BD0DE306BD08958C
:1000700004E60A950030E9F7089520FD01C0439594
:1000800021FD08954A950895039F250D9949411F23
:08009000010911C163856171D2
:00000001FF
